{"abi":[{"type":"constructor","inputs":[],"stateMutability":"nonpayable"},{"type":"receive","stateMutability":"payable"},{"type":"function","name":"approveClaim","inputs":[{"name":"_claimId","type":"uint256","internalType":"uint256"}],"outputs":[],"stateMutability":"nonpayable"},{"type":"function","name":"calculatePendingRewards","inputs":[{"name":"_staker","type":"address","internalType":"address"}],"outputs":[{"name":"","type":"uint256","internalType":"uint256"}],"stateMutability":"view"},{"type":"function","name":"claims","inputs":[{"name":"","type":"uint256","internalType":"uint256"}],"outputs":[{"name":"id","type":"uint256","internalType":"uint256"},{"name":"protocol","type":"address","internalType":"address"},{"name":"amount","type":"uint256","internalType":"uint256"},{"name":"proof","type":"string","internalType":"string"},{"name":"timestamp","type":"uint256","internalType":"uint256"},{"name":"approved","type":"bool","internalType":"bool"},{"name":"paid","type":"bool","internalType":"bool"},{"name":"claimant","type":"address","internalType":"address"}],"stateMutability":"view"},{"type":"function","name":"fileClaim","inputs":[{"name":"_protocol","type":"address","internalType":"address"},{"name":"_amount","type":"uint256","internalType":"uint256"},{"name":"_proof","type":"string","internalType":"string"}],"outputs":[{"name":"","type":"uint256","internalType":"uint256"}],"stateMutability":"nonpayable"},{"type":"function","name":"getClaim","inputs":[{"name":"_claimId","type":"uint256","internalType":"uint256"}],"outputs":[{"name":"","type":"tuple","internalType":"struct InsurancePool.Claim","components":[{"name":"id","type":"uint256","internalType":"uint256"},{"name":"protocol","type":"address","internalType":"address"},{"name":"amount","type":"uint256","internalType":"uint256"},{"name":"proof","type":"string","internalType":"string"},{"name":"timestamp","type":"uint256","internalType":"uint256"},{"name":"approved","type":"bool","internalType":"bool"},{"name":"paid","type":"bool","internalType":"bool"},{"name":"claimant","type":"address","internalType":"address"}]}],"stateMutability":"view"},{"type":"function","name":"getPoolStats","inputs":[],"outputs":[{"name":"_totalStaked","type":"uint256","internalType":"uint256"},{"name":"_totalClaimsPaid","type":"uint256","internalType":"uint256"},{"name":"_balance","type":"uint256","internalType":"uint256"},{"name":"_rewardRate","type":"uint256","internalType":"uint256"}],"stateMutability":"view"},{"type":"function","name":"getStakerInfo","inputs":[{"name":"_staker","type":"address","internalType":"address"}],"outputs":[{"name":"","type":"tuple","internalType":"struct InsurancePool.StakerInfo","components":[{"name":"stakedAmount","type":"uint256","internalType":"uint256"},{"name":"rewardDebt","type":"uint256","internalType":"uint256"},{"name":"stakedAt","type":"uint256","internalType":"uint256"}]}],"stateMutability":"view"},{"type":"function","name":"getTotalClaims","inputs":[],"outputs":[{"name":"","type":"uint256","internalType":"uint256"}],"stateMutability":"view"},{"type":"function","name":"owner","inputs":[],"outputs":[{"name":"","type":"address","internalType":"address"}],"stateMutability":"view"},{"type":"function","name":"payClaim","inputs":[{"name":"_claimId","type":"uint256","internalType":"uint256"}],"outputs":[],"stateMutability":"nonpayable"},{"type":"function","name":"protocolCoverage","inputs":[{"name":"","type":"address","internalType":"address"}],"outputs":[{"name":"","type":"uint256","internalType":"uint256"}],"stateMutability":"view"},{"type":"function","name":"renounceOwnership","inputs":[],"outputs":[],"stateMutability":"nonpayable"},{"type":"function","name":"rewardRate","inputs":[],"outputs":[{"name":"","type":"uint256","internalType":"uint256"}],"stateMutability":"view"},{"type":"function","name":"stake","inputs":[],"outputs":[],"stateMutability":"payable"},{"type":"function","name":"stakers","inputs":[{"name":"","type":"address","internalType":"address"}],"outputs":[{"name":"stakedAmount","type":"uint256","internalType":"uint256"},{"name":"rewardDebt","type":"uint256","internalType":"uint256"},{"name":"stakedAt","type":"uint256","internalType":"uint256"}],"stateMutability":"view"},{"type":"function","name":"totalClaimsPaid","inputs":[],"outputs":[{"name":"","type":"uint256","internalType":"uint256"}],"stateMutability":"view"},{"type":"function","name":"totalStaked","inputs":[],"outputs":[{"name":"","type":"uint256","internalType":"uint256"}],"stateMutability":"view"},{"type":"function","name":"transferOwnership","inputs":[{"name":"newOwner","type":"address","internalType":"address"}],"outputs":[],"stateMutability":"nonpayable"},{"type":"function","name":"unstake","inputs":[{"name":"_amount","type":"uint256","internalType":"uint256"}],"outputs":[],"stateMutability":"nonpayable"},{"type":"function","name":"updateProtocolCoverage","inputs":[{"name":"_protocol","type":"address","internalType":"address"},{"name":"_newCoverage","type":"uint256","internalType":"uint256"}],"outputs":[],"stateMutability":"nonpayable"},{"type":"event","name":"ClaimApproved","inputs":[{"name":"claimId","type":"uint256","indexed":true,"internalType":"uint256"},{"name":"timestamp","type":"uint256","indexed":false,"internalType":"uint256"}],"anonymous":false},{"type":"event","name":"ClaimFiled","inputs":[{"name":"claimId","type":"uint256","indexed":true,"internalType":"uint256"},{"name":"protocol","type":"address","indexed":true,"internalType":"address"},{"name":"amount","type":"uint256","indexed":false,"internalType":"uint256"},{"name":"timestamp","type":"uint256","indexed":false,"internalType":"uint256"}],"anonymous":false},{"type":"event","name":"ClaimPaid","inputs":[{"name":"claimId","type":"uint256","indexed":true,"internalType":"uint256"},{"name":"protocol","type":"address","indexed":true,"internalType":"address"},{"name":"amount","type":"uint256","indexed":false,"internalType":"uint256"},{"name":"timestamp","type":"uint256","indexed":false,"internalType":"uint256"}],"anonymous":false},{"type":"event","name":"CoverageUpdated","inputs":[{"name":"protocol","type":"address","indexed":true,"internalType":"address"},{"name":"newCoverage","type":"uint256","indexed":false,"internalType":"uint256"},{"name":"timestamp","type":"uint256","indexed":false,"internalType":"uint256"}],"anonymous":false},{"type":"event","name":"OwnershipTransferred","inputs":[{"name":"previousOwner","type":"address","indexed":true,"internalType":"address"},{"name":"newOwner","type":"address","indexed":true,"internalType":"address"}],"anonymous":false},{"type":"event","name":"Staked","inputs":[{"name":"user","type":"address","indexed":true,"internalType":"address"},{"name":"amount","type":"uint256","indexed":false,"internalType":"uint256"},{"name":"timestamp","type":"uint256","indexed":false,"internalType":"uint256"}],"anonymous":false},{"type":"event","name":"Unstaked","inputs":[{"name":"user","type":"address","indexed":true,"internalType":"address"},{"name":"amount","type":"uint256","indexed":false,"internalType":"uint256"},{"name":"timestamp","type":"uint256","indexed":false,"internalType":"uint256"}],"anonymous":false},{"type":"error","name":"OwnableInvalidOwner","inputs":[{"name":"owner","type":"address","internalType":"address"}]},{"type":"error","name":"OwnableUnauthorizedAccount","inputs":[{"name":"account","type":"address","internalType":"address"}]},{"type":"error","name":"ReentrancyGuardReentrantCall","inputs":[]}],"bytecode":{"object":"0x60806040526101f4600655348015610015575f80fd5b50338061003b57604051631e4fbdf760e01b81525f600482015260240160405180910390fd5b6100448161006e565b5060017f9b779b17422d0df92223018b32b4d1fa46e071723d6817e2486d003becc55f00556100bd565b5f80546001600160a01b038381166001600160a01b0319831681178455604051919092169283917f8be0079c531659141344cd1fd0a4f28419497f9722a3daafe3b4186f6b6457e09190a35050565b6116f6806100ca5f395ff3fe60806040526004361061011e575f3560e01c8063733bdef01161009d578063a888c2cd11610062578063a888c2cd1461033b578063bbb851881461036e578063d327d5f3146103a5578063d70356cc146103c4578063f2fde38b146103e3575f80fd5b8063733bdef0146102565780637b0a47ee14610297578063817b1cd2146102ac5780638da5cb5b146102c15780639168ae72146102e7575f80fd5b806346e30135116100e357806346e30135146101b75780635aef2447146101d65780636532ccf5146102025780636caf8fe914610217578063715018a614610242575f80fd5b8063097aad101461012957806309c464c41461015b57806316daa23b1461017c5780632e17de78146101905780633a4b66f1146101af575f80fd5b3661012557005b5f80fd5b348015610134575f80fd5b50610148610143366004611246565b610402565b6040519081526020015b60405180910390f35b348015610166575f80fd5b5061017a610175366004611266565b610494565b005b348015610187575f80fd5b50600354610148565b34801561019b575f80fd5b5061017a6101aa36600461128e565b610553565b61017a6106e6565b3480156101c2575f80fd5b5061017a6101d136600461128e565b61081b565b3480156101e1575f80fd5b506101f56101f036600461128e565b61094a565b60405161015291906112e8565b34801561020d575f80fd5b5061014860055481565b348015610222575f80fd5b50610148610231366004611246565b60026020525f908152604090205481565b34801561024d575f80fd5b5061017a610ae9565b348015610261575f80fd5b50610275610270366004611246565b610afa565b6040805182518152602080840151908201529181015190820152606001610152565b3480156102a2575f80fd5b5061014860065481565b3480156102b7575f80fd5b5061014860045481565b3480156102cc575f80fd5b505f546040516001600160a01b039091168152602001610152565b3480156102f2575f80fd5b50610320610301366004611246565b600160208190525f918252604090912080549181015460029091015483565b60408051938452602084019290925290820152606001610152565b348015610346575f80fd5b5061035a61035536600461128e565b610b5b565b604051610152989796959493929190611375565b348015610379575f80fd5b506004546005546006544790604080519485526020850193909352918301526060820152608001610152565b3480156103b0575f80fd5b506101486103bf3660046113e6565b610c51565b3480156103cf575f80fd5b5061017a6103de36600461128e565b610f11565b3480156103ee575f80fd5b5061017a6103fd366004611246565b61112c565b6001600160a01b0381165f908152600160208181526040808420815160608101835281548082529482015493810193909352600201549082015290820361044b57505f92915050565b5f81604001514261045c91906114be565b90505f64496cebb80082600654855f015161047791906114d7565b61048191906114d7565b61048b91906114ee565b95945050505050565b61049c611166565b6001600160a01b0382166104f25760405162461bcd60e51b8152602060048201526018602482015277496e76616c69642070726f746f636f6c206164647265737360401b60448201526064015b60405180910390fd5b6001600160a01b0382165f8181526002602052604090819020839055517f0f07c1b1a9cbc29c1a0b61ef129e9d3bf58758134dbe93b91dc90d45f3a3ed1b906105479084904290918252602082015260400190565b60405180910390a25050565b61055b611192565b335f90815260016020526040902080548211156105ba5760405162461bcd60e51b815260206004820152601a60248201527f496e73756666696369656e74207374616b656420616d6f756e7400000000000060448201526064016104e9565b60028101546105cc9062093a8061150d565b42101561061b5760405162461bcd60e51b815260206004820152601860248201527f372d646179206c6f636b20706572696f6420616374697665000000000000000060448201526064016104e9565b5f61062533610402565b905082825f015f82825461063991906114be565b925050819055508260045f82825461065191906114be565b909155505f9050610662828561150d565b604051909150339082156108fc029083905f818181858888f1935050505015801561068f573d5f803e3d5ffd5b506040805185815242602082015233917f7fc4727e062e336010f2c282598ef5f14facb3de68cf8195c2f23e1454b2b74e910160405180910390a25050506106e360015f805160206116a183398151915255565b50565b6106ee611192565b5f341161073d5760405162461bcd60e51b815260206004820152601a60248201527f4d757374207374616b65206e6f6e2d7a65726f20616d6f756e7400000000000060448201526064016104e9565b335f908152600160205260409020805415610792575f61075c33610402565b9050801561079057604051339082156108fc029083905f818181858888f1935050505015801561078e573d5f803e3d5ffd5b505b505b34815f015f8282546107a4919061150d565b9091555050426002820155600480543491905f906107c390849061150d565b90915550506040805134815242602082015233917f1449c6dd7851abc30abf37f57715f492010519147cc2652fbc38202c18a6ee90910160405180910390a25061081960015f805160206116a183398151915255565b565b610823611166565b60035481106108445760405162461bcd60e51b81526004016104e990611520565b5f600382815481106108585761085861154a565b5f9182526020909120600690910201600581015490915060ff16156108b85760405162461bcd60e51b815260206004820152601660248201527510db185a5b48185b1c9958591e48185c1c1c9bdd995960521b60448201526064016104e9565b6005810154610100900460ff16156109075760405162461bcd60e51b815260206004820152601260248201527110db185a5b48185b1c9958591e481c185a5960721b60448201526064016104e9565b60058101805460ff1916600117905560405182907f638d892b8630b775fea5d7a52b209e8bfa1d90c32b57cd37208ac84d4bcd6dcb906105479042815260200190565b60408051610100810182525f808252602082018190529181018290526060808201526080810182905260a0810182905260c0810182905260e081019190915260035482106109aa5760405162461bcd60e51b81526004016104e990611520565b600382815481106109bd576109bd61154a565b905f5260205f209060060201604051806101000160405290815f8201548152602001600182015f9054906101000a90046001600160a01b03166001600160a01b03166001600160a01b0316815260200160028201548152602001600382018054610a269061155e565b80601f0160208091040260200160405190810160405280929190818152602001828054610a529061155e565b8015610a9d5780601f10610a7457610100808354040283529160200191610a9d565b820191905f5260205f20905b815481529060010190602001808311610a8057829003601f168201915b50505091835250506004820154602082015260059091015460ff80821615156040840152610100820416151560608301526201000090046001600160a01b031660809091015292915050565b610af1611166565b6108195f6111ad565b610b1b60405180606001604052805f81526020015f81526020015f81525090565b506001600160a01b03165f908152600160208181526040928390208351606081018552815481529281015491830191909152600201549181019190915290565b60038181548110610b6a575f80fd5b5f91825260209091206006909102018054600182015460028301546003840180549395506001600160a01b03909216939092909190610ba89061155e565b80601f0160208091040260200160405190810160405280929190818152602001828054610bd49061155e565b8015610c1f5780601f10610bf657610100808354040283529160200191610c1f565b820191905f5260205f20905b815481529060010190602001808311610c0257829003601f168201915b50505050600483015460059093015491929160ff8082169250610100820416906201000090046001600160a01b031688565b5f6001600160a01b038416610ca35760405162461bcd60e51b8152602060048201526018602482015277496e76616c69642070726f746f636f6c206164647265737360401b60448201526064016104e9565b5f8311610cf25760405162461bcd60e51b815260206004820152601d60248201527f436c61696d20616d6f756e74206d75737420626520706f73697469766500000060448201526064016104e9565b6001600160a01b0384165f90815260026020526040902054831115610d515760405162461bcd60e51b8152602060048201526015602482015274496e73756666696369656e7420636f76657261676560581b60448201526064016104e9565b6003805460408051610100810182528281526001600160a01b0388811660208301908152928201888152606083018881524260808501525f60a0850181905260c085018190523360e08601526001870188559690965282517fc2575a0e9e593c00f959f8c92f12db2869c3395a3b0502d05e2516446f71f85b6006870290810191825594517fc2575a0e9e593c00f959f8c92f12db2869c3395a3b0502d05e2516446f71f85c860180546001600160a01b0319169190941617909255517fc2575a0e9e593c00f959f8c92f12db2869c3395a3b0502d05e2516446f71f85d84015593519293909283927fc2575a0e9e593c00f959f8c92f12db2869c3395a3b0502d05e2516446f71f85e0190610e6790826115e4565b506080820151600482015560a08201516005909101805460c084015160e09094015161ffff1990911692151561ff00191692909217610100931515939093029290921762010000600160b01b031916620100006001600160a01b039283160217909155604080518781524260208201529188169184917fe3f58f3fb0d7e1dd91fa339fde7f9bb42c07671ba573351a9ee9c4621e50981f910160405180910390a350949350505050565b610f19611166565b610f21611192565b6003548110610f425760405162461bcd60e51b81526004016104e990611520565b5f60038281548110610f5657610f5661154a565b5f9182526020909120600690910201600581015490915060ff16610fb15760405162461bcd60e51b815260206004820152601260248201527110db185a5b481b9bdd08185c1c1c9bdd995960721b60448201526064016104e9565b6005810154610100900460ff16156110005760405162461bcd60e51b815260206004820152601260248201527110db185a5b48185b1c9958591e481c185a5960721b60448201526064016104e9565b80600201544710156110545760405162461bcd60e51b815260206004820152601960248201527f496e73756666696369656e7420706f6f6c2062616c616e63650000000000000060448201526064016104e9565b6005808201805461ff001916610100179055600282015481549091905f9061107d90849061150d565b909155505060058101546002820154604051620100009092046001600160a01b0316916108fc82150291905f818181858888f193505050501580156110c4573d5f803e3d5ffd5b5060018101546002820154604080519182524260208301526001600160a01b039092169184917f91d5919a63ba5f913174882721fc47a121b255bf86d3d8e0c7b0795e902650f3910160405180910390a3506106e360015f805160206116a183398151915255565b611134611166565b6001600160a01b03811661115d57604051631e4fbdf760e01b81525f60048201526024016104e9565b6106e3816111ad565b5f546001600160a01b031633146108195760405163118cdaa760e01b81523360048201526024016104e9565b61119a6111fc565b60025f805160206116a183398151915255565b5f80546001600160a01b038381166001600160a01b0319831681178455604051919092169283917f8be0079c531659141344cd1fd0a4f28419497f9722a3daafe3b4186f6b6457e09190a35050565b5f805160206116a18339815191525460020361081957604051633ee5aeb560e01b815260040160405180910390fd5b80356001600160a01b0381168114611241575f80fd5b919050565b5f60208284031215611256575f80fd5b61125f8261122b565b9392505050565b5f8060408385031215611277575f80fd5b6112808361122b565b946020939093013593505050565b5f6020828403121561129e575f80fd5b5035919050565b5f81518084525f5b818110156112c9576020818501810151868301820152016112ad565b505f602082860101526020601f19601f83011685010191505092915050565b602081528151602082015260018060a01b036020830151166040820152604082015160608201525f606083015161010080608085015261132c6101208501836112a5565b9150608085015160a085015260a0850151151560c085015260c085015161135760e086018215159052565b5060e08501516001600160a01b038116858301525090949350505050565b8881526001600160a01b03888116602083015260408201889052610100606083018190525f916113a78483018a6112a5565b608085019890985295151560a0840152505091151560c083015290911660e090910152949350505050565b634e487b7160e01b5f52604160045260245ffd5b5f805f606084860312156113f8575f80fd5b6114018461122b565b925060208401359150604084013567ffffffffffffffff80821115611424575f80fd5b818601915086601f830112611437575f80fd5b813581811115611449576114496113d2565b604051601f8201601f19908116603f01168101908382118183101715611471576114716113d2565b81604052828152896020848701011115611489575f80fd5b826020860160208301375f6020848301015280955050505050509250925092565b634e487b7160e01b5f52601160045260245ffd5b818103818111156114d1576114d16114aa565b92915050565b80820281158282048414176114d1576114d16114aa565b5f8261150857634e487b7160e01b5f52601260045260245ffd5b500490565b808201808211156114d1576114d16114aa565b60208082526010908201526f125b9d985b1a590818db185a5b48125160821b604082015260600190565b634e487b7160e01b5f52603260045260245ffd5b600181811c9082168061157257607f821691505b60208210810361159057634e487b7160e01b5f52602260045260245ffd5b50919050565b601f8211156115df575f81815260208120601f850160051c810160208610156115bc5750805b601f850160051c820191505b818110156115db578281556001016115c8565b5050505b505050565b815167ffffffffffffffff8111156115fe576115fe6113d2565b6116128161160c845461155e565b84611596565b602080601f831160018114611645575f841561162e5750858301515b5f19600386901b1c1916600185901b1785556115db565b5f85815260208120601f198616915b8281101561167357888601518255948401946001909101908401611654565b508582101561169057878501515f19600388901b60f8161c191681555b5050505050600190811b0190555056fe9b779b17422d0df92223018b32b4d1fa46e071723d6817e2486d003becc55f00a26469706673582212206f8ae184a966205e95d8fe182ccc97c7721a71dd263eadf02b849b0688a63d8564736f6c63430008140033","linkReferences":{}},"methodIdentifiers":{"approveClaim(uint256)":"46e30135","calculatePendingRewards(address)":"097aad10","claims(uint256)":"a888c2cd","fileClaim(address,uint256,string)":"d327d5f3","getClaim(uint256)":"5aef2447","getPoolStats()":"bbb85188","getStakerInfo(address)":"733bdef0","getTotalClaims()":"16daa23b","owner()":"8da5cb5b","payClaim(uint256)":"d70356cc","protocolCoverage(address)":"6caf8fe9","renounceOwnership()":"715018a6","rewardRate()":"7b0a47ee","stake()":"3a4b66f1","stakers(address)":"9168ae72","totalClaimsPaid()":"6532ccf5","totalStaked()":"817b1cd2","transferOwnership(address)":"f2fde38b","unstake(uint256)":"2e17de78","updateProtocolCoverage(address,uint256)":"09c464c4"},"id":34}