{"abi":[{"type":"constructor","inputs":[],"stateMutability":"nonpayable"},{"type":"function","name":"DAO_ROLE","inputs":[],"outputs":[{"name":"","type":"bytes32","internalType":"bytes32"}],"stateMutability":"view"},{"type":"function","name":"DEFAULT_ADMIN_ROLE","inputs":[],"outputs":[{"name":"","type":"bytes32","internalType":"bytes32"}],"stateMutability":"view"},{"type":"function","name":"GUARDIAN_ROLE","inputs":[],"outputs":[{"name":"","type":"bytes32","internalType":"bytes32"}],"stateMutability":"view"},{"type":"function","name":"MAX_PAUSES_PER_HOUR","inputs":[],"outputs":[{"name":"","type":"uint256","internalType":"uint256"}],"stateMutability":"view"},{"type":"function","name":"PAUSE_COOLDOWN","inputs":[],"outputs":[{"name":"","type":"uint256","internalType":"uint256"}],"stateMutability":"view"},{"type":"function","name":"allProtectedContracts","inputs":[{"name":"","type":"uint256","internalType":"uint256"}],"outputs":[{"name":"","type":"address","internalType":"address"}],"stateMutability":"view"},{"type":"function","name":"authorizeGuardian","inputs":[{"name":"_agent","type":"address","internalType":"address"}],"outputs":[],"stateMutability":"nonpayable"},{"type":"function","name":"emergencyPause","inputs":[{"name":"_contractAddress","type":"address","internalType":"address"},{"name":"_reason","type":"string","internalType":"string"},{"name":"_riskScore","type":"uint256","internalType":"uint256"}],"outputs":[],"stateMutability":"nonpayable"},{"type":"function","name":"getAllProtectedContracts","inputs":[],"outputs":[{"name":"","type":"address[]","internalType":"address[]"}],"stateMutability":"view"},{"type":"function","name":"getContractDetails","inputs":[{"name":"_contractAddress","type":"address","internalType":"address"}],"outputs":[{"name":"","type":"tuple","internalType":"struct GuardianRegistry.ProtectedContract","components":[{"name":"contractAddress","type":"address","internalType":"address"},{"name":"guardian","type":"address","internalType":"address"},{"name":"riskScore","type":"uint256","internalType":"uint256"},{"name":"isPaused","type":"bool","internalType":"bool"},{"name":"lastCheckTimestamp","type":"uint256","internalType":"uint256"},{"name":"pausedAt","type":"uint256","internalType":"uint256"},{"name":"protocolName","type":"string","internalType":"string"}]}],"stateMutability":"view"},{"type":"function","name":"getRoleAdmin","inputs":[{"name":"role","type":"bytes32","internalType":"bytes32"}],"outputs":[{"name":"","type":"bytes32","internalType":"bytes32"}],"stateMutability":"view"},{"type":"function","name":"grantRole","inputs":[{"name":"role","type":"bytes32","internalType":"bytes32"},{"name":"account","type":"address","internalType":"address"}],"outputs":[],"stateMutability":"nonpayable"},{"type":"function","name":"hasRole","inputs":[{"name":"role","type":"bytes32","internalType":"bytes32"},{"name":"account","type":"address","internalType":"address"}],"outputs":[{"name":"","type":"bool","internalType":"bool"}],"stateMutability":"view"},{"type":"function","name":"isContractPaused","inputs":[{"name":"_contractAddress","type":"address","internalType":"address"}],"outputs":[{"name":"","type":"bool","internalType":"bool"}],"stateMutability":"view"},{"type":"function","name":"isProtected","inputs":[{"name":"","type":"address","internalType":"address"}],"outputs":[{"name":"","type":"bool","internalType":"bool"}],"stateMutability":"view"},{"type":"function","name":"lastPauseHourReset","inputs":[],"outputs":[{"name":"","type":"uint256","internalType":"uint256"}],"stateMutability":"view"},{"type":"function","name":"pauseCount","inputs":[],"outputs":[{"name":"","type":"uint256","internalType":"uint256"}],"stateMutability":"view"},{"type":"function","name":"protectedContracts","inputs":[{"name":"","type":"address","internalType":"address"}],"outputs":[{"name":"contractAddress","type":"address","internalType":"address"},{"name":"guardian","type":"address","internalType":"address"},{"name":"riskScore","type":"uint256","internalType":"uint256"},{"name":"isPaused","type":"bool","internalType":"bool"},{"name":"lastCheckTimestamp","type":"uint256","internalType":"uint256"},{"name":"pausedAt","type":"uint256","internalType":"uint256"},{"name":"protocolName","type":"string","internalType":"string"}],"stateMutability":"view"},{"type":"function","name":"registerContract","inputs":[{"name":"_contractAddress","type":"address","internalType":"address"},{"name":"_guardian","type":"address","internalType":"address"},{"name":"_protocolName","type":"string","internalType":"string"}],"outputs":[],"stateMutability":"nonpayable"},{"type":"function","name":"renounceRole","inputs":[{"name":"role","type":"bytes32","internalType":"bytes32"},{"name":"callerConfirmation","type":"address","internalType":"address"}],"outputs":[],"stateMutability":"nonpayable"},{"type":"function","name":"resumeContract","inputs":[{"name":"_contractAddress","type":"address","internalType":"address"}],"outputs":[],"stateMutability":"nonpayable"},{"type":"function","name":"revokeGuardian","inputs":[{"name":"_agent","type":"address","internalType":"address"}],"outputs":[],"stateMutability":"nonpayable"},{"type":"function","name":"revokeRole","inputs":[{"name":"role","type":"bytes32","internalType":"bytes32"},{"name":"account","type":"address","internalType":"address"}],"outputs":[],"stateMutability":"nonpayable"},{"type":"function","name":"supportsInterface","inputs":[{"name":"interfaceId","type":"bytes4","internalType":"bytes4"}],"outputs":[{"name":"","type":"bool","internalType":"bool"}],"stateMutability":"view"},{"type":"function","name":"updateRiskScore","inputs":[{"name":"_contractAddress","type":"address","internalType":"address"},{"name":"_riskScore","type":"uint256","internalType":"uint256"}],"outputs":[],"stateMutability":"nonpayable"},{"type":"event","name":"ContractRegistered","inputs":[{"name":"contractAddress","type":"address","indexed":true,"internalType":"address"},{"name":"guardian","type":"address","indexed":true,"internalType":"address"},{"name":"protocolName","type":"string","indexed":false,"internalType":"string"},{"name":"timestamp","type":"uint256","indexed":false,"internalType":"uint256"}],"anonymous":false},{"type":"event","name":"ContractResumed","inputs":[{"name":"contractAddress","type":"address","indexed":true,"internalType":"address"},{"name":"dao","type":"address","indexed":true,"internalType":"address"},{"name":"timestamp","type":"uint256","indexed":false,"internalType":"uint256"}],"anonymous":false},{"type":"event","name":"EmergencyPause","inputs":[{"name":"contractAddress","type":"address","indexed":true,"internalType":"address"},{"name":"guardian","type":"address","indexed":true,"internalType":"address"},{"name":"reason","type":"string","indexed":false,"internalType":"string"},{"name":"riskScore","type":"uint256","indexed":false,"internalType":"uint256"},{"name":"timestamp","type":"uint256","indexed":false,"internalType":"uint256"}],"anonymous":false},{"type":"event","name":"RiskScoreUpdated","inputs":[{"name":"contractAddress","type":"address","indexed":true,"internalType":"address"},{"name":"oldScore","type":"uint256","indexed":false,"internalType":"uint256"},{"name":"newScore","type":"uint256","indexed":false,"internalType":"uint256"},{"name":"timestamp","type":"uint256","indexed":false,"internalType":"uint256"}],"anonymous":false},{"type":"event","name":"RoleAdminChanged","inputs":[{"name":"role","type":"bytes32","indexed":true,"internalType":"bytes32"},{"name":"previousAdminRole","type":"bytes32","indexed":true,"internalType":"bytes32"},{"name":"newAdminRole","type":"bytes32","indexed":true,"internalType":"bytes32"}],"anonymous":false},{"type":"event","name":"RoleGranted","inputs":[{"name":"role","type":"bytes32","indexed":true,"internalType":"bytes32"},{"name":"account","type":"address","indexed":true,"internalType":"address"},{"name":"sender","type":"address","indexed":true,"internalType":"address"}],"anonymous":false},{"type":"event","name":"RoleRevoked","inputs":[{"name":"role","type":"bytes32","indexed":true,"internalType":"bytes32"},{"name":"account","type":"address","indexed":true,"internalType":"address"},{"name":"sender","type":"address","indexed":true,"internalType":"address"}],"anonymous":false},{"type":"error","name":"AccessControlBadConfirmation","inputs":[]},{"type":"error","name":"AccessControlUnauthorizedAccount","inputs":[{"name":"account","type":"address","internalType":"address"},{"name":"neededRole","type":"bytes32","internalType":"bytes32"}]},{"type":"error","name":"ReentrancyGuardReentrantCall","inputs":[]}],"bytecode":{"object":"0x608060405234801561000f575f80fd5b5060017f9b779b17422d0df92223018b32b4d1fa46e071723d6817e2486d003becc55f005561003e5f33610073565b506100697f3b5d4cc60d3ec3516ee8ae083bd60934f6eb2a6c54b1229985c41bfb092b260333610073565b504260055561011c565b5f828152602081815260408083206001600160a01b038516845290915281205460ff16610113575f838152602081815260408083206001600160a01b03861684529091529020805460ff191660011790556100cb3390565b6001600160a01b0316826001600160a01b0316847f2f8788117e7eff1d82e926ec794901d17c78024a50270940304540a733656f0d60405160405180910390a4506001610116565b505f5b92915050565b6116ce806101295f395ff3fe608060405234801561000f575f80fd5b506004361061016d575f3560e01c806369c3b0c5116100d9578063b0f008eb11610093578063ce35de951161006e578063ce35de9514610353578063d547741f14610375578063e9c2651814610388578063f46d39dc146103af575f80fd5b8063b0f008eb146102f1578063b547c89e1461031f578063b5acb5671461034a575f80fd5b806369c3b0c51461028b5780638e716ccb1461029e57806391d14854146102b15780639ff1192d146102c4578063a217fddf146102d7578063af648c3d146102de575f80fd5b806324ea54f41161012a57806324ea54f4146102155780632570c082146102295780632f2ff15d1461023257806332df3f02146102455780633413ff8f1461026557806336568abe14610278575f80fd5b806301ffc9a71461017157806316285e6b146101995780631690c613146101af5780631ec01d71146101b85780631f23c4ee146101de578063248a9ca3146101f3575b5f80fd5b61018461017f366004611121565b6103c4565b60405190151581526020015b60405180910390f35b6101a1600a81565b604051908152602001610190565b6101a160055481565b6101cb6101c636600461116a565b6103fa565b60405161019097969594939291906111c6565b6101f16101ec36600461116a565b6104d1565b005b6101a1610201366004611217565b5f9081526020819052604090206001015490565b6101a15f8051602061167983398151915281565b6101a160045481565b6101f161024036600461122e565b6104f6565b61025861025336600461116a565b610520565b6040516101909190611258565b6101f161027336600461116a565b6106b1565b6101f161028636600461122e565b610822565b6101f1610299366004611362565b61085a565b6101f16102ac3660046113b5565b610a97565b6101846102bf36600461122e565b610d6a565b6101f16102d236600461140f565b610d92565b6101a15f81565b6101f16102ec36600461116a565b610ea4565b6101846102ff36600461116a565b6001600160a01b03165f9081526001602052604090206003015460ff1690565b61033261032d366004611217565b610ec5565b6040516001600160a01b039091168152602001610190565b6101a161012c81565b61018461036136600461116a565b60026020525f908152604090205460ff1681565b6101f161038336600461122e565b610eed565b6101a17f3b5d4cc60d3ec3516ee8ae083bd60934f6eb2a6c54b1229985c41bfb092b260381565b6103b7610f11565b6040516101909190611437565b5f6001600160e01b03198216637965db0b60e01b14806103f457506301ffc9a760e01b6001600160e01b03198316145b92915050565b600160208190525f918252604090912080549181015460028201546003830154600484015460058501546006860180546001600160a01b039889169890961696949560ff90941694929391929161045090611483565b80601f016020809104026020016040519081016040528092919081815260200182805461047c90611483565b80156104c75780601f1061049e576101008083540402835291602001916104c7565b820191905f5260205f20905b8154815290600101906020018083116104aa57829003601f168201915b5050505050905087565b5f6104db81610f71565b6104f25f80516020611679833981519152836104f6565b5050565b5f8281526020819052604090206001015461051081610f71565b61051a8383610f7e565b50505050565b61056e6040518060e001604052805f6001600160a01b031681526020015f6001600160a01b031681526020015f81526020015f151581526020015f81526020015f8152602001606081525090565b6001600160a01b0382165f9081526002602052604090205460ff166105ae5760405162461bcd60e51b81526004016105a5906114bb565b60405180910390fd5b6001600160a01b038083165f90815260016020818152604092839020835160e0810185528154861681529281015490941690820152600283015491810191909152600382015460ff161515606082015260048201546080820152600582015460a082015260068201805491929160c08401919061062a90611483565b80601f016020809104026020016040519081016040528092919081815260200182805461065690611483565b80156106a15780601f10610678576101008083540402835291602001916106a1565b820191905f5260205f20905b81548152906001019060200180831161068457829003601f168201915b5050505050815250509050919050565b7f3b5d4cc60d3ec3516ee8ae083bd60934f6eb2a6c54b1229985c41bfb092b26036106db81610f71565b6001600160a01b0382165f9081526002602052604090205460ff166107125760405162461bcd60e51b81526004016105a5906114bb565b6001600160a01b0382165f908152600160205260409020600381015460ff166107735760405162461bcd60e51b815260206004820152601360248201527210dbdb9d1c9858dd081b9bdd081c185d5cd959606a1b60448201526064016105a5565b600581015461078590620151806114ff565b4210156107ca5760405162461bcd60e51b81526020600482015260136024820152723234682074696d656c6f636b2061637469766560681b60448201526064016105a5565b60038101805460ff191690555f600282015560405142815233906001600160a01b038516907f71115d53415faac6de308bbc2071efa66b16b987f30ccebee9389cf8105c93c9906020015b60405180910390a3505050565b6001600160a01b038116331461084b5760405163334bd91960e11b815260040160405180910390fd5b610855828261100d565b505050565b5f8051602061167983398151915261087181610f71565b610879611076565b6001600160a01b0384165f9081526002602052604090205460ff166108b05760405162461bcd60e51b81526004016105a5906114bb565b6001600160a01b0384165f908152600160205260409020600381015460ff161561091c5760405162461bcd60e51b815260206004820152601760248201527f436f6e747261637420616c72656164792070617573656400000000000000000060448201526064016105a5565b61012c816005015461092e91906114ff565b4210156109755760405162461bcd60e51b8152602060048201526015602482015274506175736520636f6f6c646f776e2061637469766560581b60448201526064016105a5565b60055461098490610e106114ff565b4210610993575f600455426005555b600a600454106109e55760405162461bcd60e51b815260206004820152601960248201527f50617573652072617465206c696d69742065786365656465640000000000000060448201526064016105a5565b60038101805460ff191660011790554260058201819055600282018490556004808301919091558054905f610a1983611512565b9190505550336001600160a01b0316856001600160a01b03167feac60cb943ac1ae7961d73f4e2947ac6377adf4ca518be0ad29760114e402091868642604051610a659392919061152a565b60405180910390a35061051a60017f9b779b17422d0df92223018b32b4d1fa46e071723d6817e2486d003becc55f0055565b6001600160a01b038316610aed5760405162461bcd60e51b815260206004820152601860248201527f496e76616c696420636f6e74726163742061646472657373000000000000000060448201526064016105a5565b6001600160a01b038216610b435760405162461bcd60e51b815260206004820152601860248201527f496e76616c696420677561726469616e2061646472657373000000000000000060448201526064016105a5565b6001600160a01b0383165f9081526002602052604090205460ff1615610bab5760405162461bcd60e51b815260206004820152601a60248201527f436f6e747261637420616c72656164792070726f74656374656400000000000060448201526064016105a5565b610bc25f8051602061167983398151915283610d6a565b610c0e5760405162461bcd60e51b815260206004820152601760248201527f477561726469616e206e6f7420617574686f72697a656400000000000000000060448201526064016105a5565b6040805160e0810182526001600160a01b0385811680835285821660208085019182525f85870181815260608701828152426080890190815260a0890184815260c08a018c815297855260019586905299909320885181546001600160a01b0319908116918a16919091178255955194810180549096169490971693909317909355915160028501555160038401805460ff19169115159190911790555160048301559251600582015591519091906006820190610ccc908261159b565b5050506001600160a01b038084165f81815260026020526040808220805460ff191660019081179091556003805491820181559092527fc2575a0e9e593c00f959f8c92f12db2869c3395a3b0502d05e2516446f71f85b90910180546001600160a01b0319168317905551918416917f7ce5df2a2f19bfd22b70ad352448ce58752d35593bcf5378e0520e5cbdd3cacc906108159085904290611657565b5f918252602082815260408084206001600160a01b0393909316845291905290205460ff1690565b5f80516020611679833981519152610da981610f71565b6001600160a01b0383165f9081526002602052604090205460ff16610de05760405162461bcd60e51b81526004016105a5906114bb565b6064821115610e315760405162461bcd60e51b815260206004820152601960248201527f5269736b2073636f7265206d757374206265203c3d203130300000000000000060448201526064016105a5565b6001600160a01b0383165f8181526001602090815260409182902060028101805490879055426004830181905584518281529384018890528385015292519093917f3de90e674590617ea446a484bfb7c80463e2aa19fae231eadf228e0573365b8b919081900360600190a25050505050565b5f610eae81610f71565b6104f25f8051602061167983398151915283610eed565b60038181548110610ed4575f80fd5b5f918252602090912001546001600160a01b0316905081565b5f82815260208190526040902060010154610f0781610f71565b61051a838361100d565b60606003805480602002602001604051908101604052809291908181526020018280548015610f6757602002820191905f5260205f20905b81546001600160a01b03168152600190910190602001808311610f49575b5050505050905090565b610f7b81336110a4565b50565b5f610f898383610d6a565b611006575f838152602081815260408083206001600160a01b03861684529091529020805460ff19166001179055610fbe3390565b6001600160a01b0316826001600160a01b0316847f2f8788117e7eff1d82e926ec794901d17c78024a50270940304540a733656f0d60405160405180910390a45060016103f4565b505f6103f4565b5f6110188383610d6a565b15611006575f838152602081815260408083206001600160a01b0386168085529252808320805460ff1916905551339286917ff6391f5c32d9c69d2a47ea670b442974b53935d1edc7fd64eb21e047a839171b9190a45060016103f4565b61107e6110dd565b60027f9b779b17422d0df92223018b32b4d1fa46e071723d6817e2486d003becc55f0055565b6110ae8282610d6a565b6104f25760405163e2517d3f60e01b81526001600160a01b0382166004820152602481018390526044016105a5565b7f9b779b17422d0df92223018b32b4d1fa46e071723d6817e2486d003becc55f005460020361111f57604051633ee5aeb560e01b815260040160405180910390fd5b565b5f60208284031215611131575f80fd5b81356001600160e01b031981168114611148575f80fd5b9392505050565b80356001600160a01b0381168114611165575f80fd5b919050565b5f6020828403121561117a575f80fd5b6111488261114f565b5f81518084525f5b818110156111a75760208185018101518683018201520161118b565b505f602082860101526020601f19601f83011685010191505092915050565b5f60018060a01b03808a16835280891660208401525086604083015285151560608301528460808301528360a083015260e060c083015261120a60e0830184611183565b9998505050505050505050565b5f60208284031215611227575f80fd5b5035919050565b5f806040838503121561123f575f80fd5b8235915061124f6020840161114f565b90509250929050565b602081525f60018060a01b038084511660208401528060208501511660408401525060408301516060830152606083015115156080830152608083015160a083015260a083015160c083015260c083015160e0808401526112bd610100840182611183565b949350505050565b634e487b7160e01b5f52604160045260245ffd5b5f82601f8301126112e8575f80fd5b813567ffffffffffffffff80821115611303576113036112c5565b604051601f8301601f19908116603f0116810190828211818310171561132b5761132b6112c5565b81604052838152866020858801011115611343575f80fd5b836020870160208301375f602085830101528094505050505092915050565b5f805f60608486031215611374575f80fd5b61137d8461114f565b9250602084013567ffffffffffffffff811115611398575f80fd5b6113a4868287016112d9565b925050604084013590509250925092565b5f805f606084860312156113c7575f80fd5b6113d08461114f565b92506113de6020850161114f565b9150604084013567ffffffffffffffff8111156113f9575f80fd5b611405868287016112d9565b9150509250925092565b5f8060408385031215611420575f80fd5b6114298361114f565b946020939093013593505050565b602080825282518282018190525f9190848201906040850190845b818110156114775783516001600160a01b031683529284019291840191600101611452565b50909695505050505050565b600181811c9082168061149757607f821691505b6020821081036114b557634e487b7160e01b5f52602260045260245ffd5b50919050565b60208082526016908201527510dbdb9d1c9858dd081b9bdd081c1c9bdd1958dd195960521b604082015260600190565b634e487b7160e01b5f52601160045260245ffd5b808201808211156103f4576103f46114eb565b5f60018201611523576115236114eb565b5060010190565b606081525f61153c6060830186611183565b60208301949094525060400152919050565b601f821115610855575f81815260208120601f850160051c810160208610156115745750805b601f850160051c820191505b8181101561159357828155600101611580565b505050505050565b815167ffffffffffffffff8111156115b5576115b56112c5565b6115c9816115c38454611483565b8461154e565b602080601f8311600181146115fc575f84156115e55750858301515b5f19600386901b1c1916600185901b178555611593565b5f85815260208120601f198616915b8281101561162a5788860151825594840194600190910190840161160b565b508582101561164757878501515f19600388901b60f8161c191681555b5050505050600190811b01905550565b604081525f6116696040830185611183565b9050826020830152939250505056fe55435dd261a4b9b3364963f7738a7a662ad9c84396d64be3365284bb7f0a5041a264697066735822122000b8533e114fdc805bbb9216bb2fbaac05d224f389bbcf46e3a10a5184269c7264736f6c63430008140033","linkReferences":{}},"methodIdentifiers":{"DAO_ROLE()":"e9c26518","DEFAULT_ADMIN_ROLE()":"a217fddf","GUARDIAN_ROLE()":"24ea54f4","MAX_PAUSES_PER_HOUR()":"16285e6b","PAUSE_COOLDOWN()":"b5acb567","allProtectedContracts(uint256)":"b547c89e","authorizeGuardian(address)":"1f23c4ee","emergencyPause(address,string,uint256)":"69c3b0c5","getAllProtectedContracts()":"f46d39dc","getContractDetails(address)":"32df3f02","getRoleAdmin(bytes32)":"248a9ca3","grantRole(bytes32,address)":"2f2ff15d","hasRole(bytes32,address)":"91d14854","isContractPaused(address)":"b0f008eb","isProtected(address)":"ce35de95","lastPauseHourReset()":"1690c613","pauseCount()":"2570c082","protectedContracts(address)":"1ec01d71","registerContract(address,address,string)":"8e716ccb","renounceRole(bytes32,address)":"36568abe","resumeContract(address)":"3413ff8f","revokeGuardian(address)":"af648c3d","revokeRole(bytes32,address)":"d547741f","supportsInterface(bytes4)":"01ffc9a7","updateRiskScore(address,uint256)":"9ff1192d"},"id":32}