{"abi":[{"type":"constructor","inputs":[],"stateMutability":"nonpayable"},{"type":"function","name":"agentDetectionCount","inputs":[{"name":"","type":"address","internalType":"address"}],"outputs":[{"name":"","type":"uint256","internalType":"uint256"}],"stateMutability":"view"},{"type":"function","name":"contractIncidents","inputs":[{"name":"","type":"address","internalType":"address"},{"name":"","type":"uint256","internalType":"uint256"}],"outputs":[{"name":"","type":"uint256","internalType":"uint256"}],"stateMutability":"view"},{"type":"function","name":"getAgentStats","inputs":[{"name":"_agent","type":"address","internalType":"address"}],"outputs":[{"name":"","type":"uint256","internalType":"uint256"}],"stateMutability":"view"},{"type":"function","name":"getContractIncidents","inputs":[{"name":"_contractAddress","type":"address","internalType":"address"}],"outputs":[{"name":"","type":"uint256[]","internalType":"uint256[]"}],"stateMutability":"view"},{"type":"function","name":"getIncident","inputs":[{"name":"_incidentId","type":"uint256","internalType":"uint256"}],"outputs":[{"name":"","type":"tuple","internalType":"struct IncidentLog.Incident","components":[{"name":"id","type":"uint256","internalType":"uint256"},{"name":"contractAddress","type":"address","internalType":"address"},{"name":"timestamp","type":"uint256","internalType":"uint256"},{"name":"incidentType","type":"string","internalType":"string"},{"name":"riskScore","type":"uint256","internalType":"uint256"},{"name":"ipfsReport","type":"string","internalType":"string"},{"name":"detectedBy","type":"address","internalType":"address"},{"name":"wasExploit","type":"bool","internalType":"bool"},{"name":"resolved","type":"bool","internalType":"bool"},{"name":"resolvedAt","type":"uint256","internalType":"uint256"}]}],"stateMutability":"view"},{"type":"function","name":"getRecentIncidents","inputs":[{"name":"_count","type":"uint256","internalType":"uint256"}],"outputs":[{"name":"","type":"tuple[]","internalType":"struct IncidentLog.Incident[]","components":[{"name":"id","type":"uint256","internalType":"uint256"},{"name":"contractAddress","type":"address","internalType":"address"},{"name":"timestamp","type":"uint256","internalType":"uint256"},{"name":"incidentType","type":"string","internalType":"string"},{"name":"riskScore","type":"uint256","internalType":"uint256"},{"name":"ipfsReport","type":"string","internalType":"string"},{"name":"detectedBy","type":"address","internalType":"address"},{"name":"wasExploit","type":"bool","internalType":"bool"},{"name":"resolved","type":"bool","internalType":"bool"},{"name":"resolvedAt","type":"uint256","internalType":"uint256"}]}],"stateMutability":"view"},{"type":"function","name":"getTotalIncidents","inputs":[],"outputs":[{"name":"","type":"uint256","internalType":"uint256"}],"stateMutability":"view"},{"type":"function","name":"incidents","inputs":[{"name":"","type":"uint256","internalType":"uint256"}],"outputs":[{"name":"id","type":"uint256","internalType":"uint256"},{"name":"contractAddress","type":"address","internalType":"address"},{"name":"timestamp","type":"uint256","internalType":"uint256"},{"name":"incidentType","type":"string","internalType":"string"},{"name":"riskScore","type":"uint256","internalType":"uint256"},{"name":"ipfsReport","type":"string","internalType":"string"},{"name":"detectedBy","type":"address","internalType":"address"},{"name":"wasExploit","type":"bool","internalType":"bool"},{"name":"resolved","type":"bool","internalType":"bool"},{"name":"resolvedAt","type":"uint256","internalType":"uint256"}],"stateMutability":"view"},{"type":"function","name":"logIncident","inputs":[{"name":"_contractAddress","type":"address","internalType":"address"},{"name":"_incidentType","type":"string","internalType":"string"},{"name":"_riskScore","type":"uint256","internalType":"uint256"},{"name":"_ipfsReport","type":"string","internalType":"string"},{"name":"_detectedBy","type":"address","internalType":"address"}],"outputs":[{"name":"","type":"uint256","internalType":"uint256"}],"stateMutability":"nonpayable"},{"type":"function","name":"owner","inputs":[],"outputs":[{"name":"","type":"address","internalType":"address"}],"stateMutability":"view"},{"type":"function","name":"renounceOwnership","inputs":[],"outputs":[],"stateMutability":"nonpayable"},{"type":"function","name":"resolveIncident","inputs":[{"name":"_incidentId","type":"uint256","internalType":"uint256"},{"name":"_wasExploit","type":"bool","internalType":"bool"}],"outputs":[],"stateMutability":"nonpayable"},{"type":"function","name":"transferOwnership","inputs":[{"name":"newOwner","type":"address","internalType":"address"}],"outputs":[],"stateMutability":"nonpayable"},{"type":"event","name":"IncidentLogged","inputs":[{"name":"incidentId","type":"uint256","indexed":true,"internalType":"uint256"},{"name":"contractAddress","type":"address","indexed":true,"internalType":"address"},{"name":"incidentType","type":"string","indexed":false,"internalType":"string"},{"name":"riskScore","type":"uint256","indexed":false,"internalType":"uint256"},{"name":"detectedBy","type":"address","indexed":true,"internalType":"address"},{"name":"timestamp","type":"uint256","indexed":false,"internalType":"uint256"}],"anonymous":false},{"type":"event","name":"IncidentResolved","inputs":[{"name":"incidentId","type":"uint256","indexed":true,"internalType":"uint256"},{"name":"wasExploit","type":"bool","indexed":false,"internalType":"bool"},{"name":"timestamp","type":"uint256","indexed":false,"internalType":"uint256"}],"anonymous":false},{"type":"event","name":"OwnershipTransferred","inputs":[{"name":"previousOwner","type":"address","indexed":true,"internalType":"address"},{"name":"newOwner","type":"address","indexed":true,"internalType":"address"}],"anonymous":false},{"type":"error","name":"OwnableInvalidOwner","inputs":[{"name":"owner","type":"address","internalType":"address"}]},{"type":"error","name":"OwnableUnauthorizedAccount","inputs":[{"name":"account","type":"address","internalType":"address"}]}],"bytecode":{"object":"0x608060405234801561000f575f80fd5b50338061003557604051631e4fbdf760e01b81525f600482015260240160405180910390fd5b61003e81610044565b50610093565b5f80546001600160a01b038381166001600160a01b0319831681178455604051919092169283917f8be0079c531659141344cd1fd0a4f28419497f9722a3daafe3b4186f6b6457e09190a35050565b6114c0806100a05f395ff3fe608060405234801561000f575f80fd5b50600436106100cb575f3560e01c80638da5cb5b11610088578063a6c6a8f311610063578063a6c6a8f3146101b3578063adbda94e146101dc578063b5695b38146101ef578063f2fde38b14610217575f80fd5b80638da5cb5b146101665780639183af53146101805780639578615e14610193575f80fd5b80632047704d146100cf5780632e0b59731461010157806331b7733f14610121578063636617b914610141578063715018a6146101495780637949da8514610153575b5f80fd5b6100ee6100dd366004610eeb565b60036020525f908152604090205481565b6040519081526020015b60405180910390f35b61011461010f366004610eeb565b61022a565b6040516100f89190610f0b565b61013461012f366004610f4e565b610293565b6040516100f89190611062565b6001546100ee565b610151610531565b005b6100ee61016136600461115f565b610544565b5f546040516001600160a01b0390911681526020016100f8565b61015161018e3660046111e8565b610890565b6101a66101a1366004610f4e565b6109d2565b6040516100f8919061121a565b6101c66101c1366004610f4e565b610bfe565b6040516100f89a9998979695949392919061122c565b6100ee6101ea3660046112a3565b610d8c565b6100ee6101fd366004610eeb565b6001600160a01b03165f9081526003602052604090205490565b610151610225366004610eeb565b610db7565b6001600160a01b0381165f9081526002602090815260409182902080548351818402810184019094528084526060939283018282801561028757602002820191905f5260205f20905b815481526020019060010190808311610273575b50505050509050919050565b6001546060905f8184116102a757836102a9565b815b90505f8167ffffffffffffffff8111156102c5576102c56110c2565b6040519080825280602002602001820160405280156102fe57816020015b6102eb610e6f565b8152602001906001900390816102e35790505b5090505f5b828110156105285760018161031882876112df565b61032291906112df565b81548110610332576103326112f8565b905f5260205f209060080201604051806101400160405290815f8201548152602001600182015f9054906101000a90046001600160a01b03166001600160a01b03166001600160a01b031681526020016002820154815260200160038201805461039b9061130c565b80601f01602080910402602001604051908101604052809291908181526020018280546103c79061130c565b80156104125780601f106103e957610100808354040283529160200191610412565b820191905f5260205f20905b8154815290600101906020018083116103f557829003601f168201915b50505050508152602001600482015481526020016005820180546104359061130c565b80601f01602080910402602001604051908101604052809291908181526020018280546104619061130c565b80156104ac5780601f10610483576101008083540402835291602001916104ac565b820191905f5260205f20905b81548152906001019060200180831161048f57829003601f168201915b505050918352505060068201546001600160a01b038116602083015260ff600160a01b8204811615156040840152600160a81b9091041615156060820152600790910154608090910152825183908390811061050a5761050a6112f8565b6020026020010181905250808061052090611344565b915050610303565b50949350505050565b610539610df4565b6105425f610e20565b565b5f61054d610df4565b6001600160a01b0386166105a85760405162461bcd60e51b815260206004820152601860248201527f496e76616c696420636f6e74726163742061646472657373000000000000000060448201526064015b60405180910390fd5b6001600160a01b0382166105fe5760405162461bcd60e51b815260206004820152601860248201527f496e76616c6964206465746563746f7220616464726573730000000000000000604482015260640161059f565b606484111561064f5760405162461bcd60e51b815260206004820152601960248201527f5269736b2073636f7265206d757374206265203c3d2031303000000000000000604482015260640161059f565b6001805460408051610140810182528281526001600160a01b038a81166020830190815242938301938452606083018b8152608084018b905260a084018a905288831660c08501525f60e085018190526101008501819052610120850181905286880188559690965282517fb10e2d527612073b26eecdfd717e6a320cf44b4afac2b0732d9fcbe2b7fa0cf66008870290810191825591517fb10e2d527612073b26eecdfd717e6a320cf44b4afac2b0732d9fcbe2b7fa0cf7830180546001600160a01b031916919094161790925592517fb10e2d527612073b26eecdfd717e6a320cf44b4afac2b0732d9fcbe2b7fa0cf884015593519293909283927fb10e2d527612073b26eecdfd717e6a320cf44b4afac2b0732d9fcbe2b7fa0cf9019061077990826113aa565b506080820151600482015560a0820151600582019061079890826113aa565b5060c082015160068201805460e08501516101008601511515600160a81b0260ff60a81b19911515600160a01b026001600160a81b03199093166001600160a01b03958616179290921716179055610120909201516007909101558881165f90815260026020908152604080832080546001810182559084528284200186905592871682526003905290812080549161083083611344565b9190505550836001600160a01b0316886001600160a01b0316837f5547770950752b0658e7b06d6a63cbf90ca9c513fb425e8e520013e632c3bde88a8a4260405161087d93929190611466565b60405180910390a4509695505050505050565b610898610df4565b60015482106108df5760405162461bcd60e51b8152602060048201526013602482015272125b9d985b1a59081a5b98da59195b9d081251606a1b604482015260640161059f565b5f600183815481106108f3576108f36112f8565b905f5260205f20906008020190508060060160159054906101000a900460ff16156109605760405162461bcd60e51b815260206004820152601960248201527f496e636964656e7420616c7265616479207265736f6c76656400000000000000604482015260640161059f565b600681018054831515600160a01b0261ffff60a01b1990911617600160a81b179055426007820181905560405184917fc7a0d9108af09066bf58f97e3bc4d100fed096ea20c5394a0a360ac62b5f4f19916109c5918615158252602082015260400190565b60405180910390a2505050565b6109da610e6f565b6001548210610a215760405162461bcd60e51b8152602060048201526013602482015272125b9d985b1a59081a5b98da59195b9d081251606a1b604482015260640161059f565b60018281548110610a3457610a346112f8565b905f5260205f209060080201604051806101400160405290815f8201548152602001600182015f9054906101000a90046001600160a01b03166001600160a01b03166001600160a01b0316815260200160028201548152602001600382018054610a9d9061130c565b80601f0160208091040260200160405190810160405280929190818152602001828054610ac99061130c565b8015610b145780601f10610aeb57610100808354040283529160200191610b14565b820191905f5260205f20905b815481529060010190602001808311610af757829003601f168201915b5050505050815260200160048201548152602001600582018054610b379061130c565b80601f0160208091040260200160405190810160405280929190818152602001828054610b639061130c565b8015610bae5780601f10610b8557610100808354040283529160200191610bae565b820191905f5260205f20905b815481529060010190602001808311610b9157829003601f168201915b505050918352505060068201546001600160a01b038116602083015260ff600160a01b8204811615156040840152600160a81b909104161515606082015260079091015460809091015292915050565b60018181548110610c0d575f80fd5b5f91825260209091206008909102018054600182015460028301546003840180549395506001600160a01b03909216939092909190610c4b9061130c565b80601f0160208091040260200160405190810160405280929190818152602001828054610c779061130c565b8015610cc25780601f10610c9957610100808354040283529160200191610cc2565b820191905f5260205f20905b815481529060010190602001808311610ca557829003601f168201915b505050505090806004015490806005018054610cdd9061130c565b80601f0160208091040260200160405190810160405280929190818152602001828054610d099061130c565b8015610d545780601f10610d2b57610100808354040283529160200191610d54565b820191905f5260205f20905b815481529060010190602001808311610d3757829003601f168201915b505050600684015460079094015492936001600160a01b0381169360ff600160a01b830481169450600160a81b90920490911691508a565b6002602052815f5260405f208181548110610da5575f80fd5b905f5260205f20015f91509150505481565b610dbf610df4565b6001600160a01b038116610de857604051631e4fbdf760e01b81525f600482015260240161059f565b610df181610e20565b50565b5f546001600160a01b031633146105425760405163118cdaa760e01b815233600482015260240161059f565b5f80546001600160a01b038381166001600160a01b0319831681178455604051919092169283917f8be0079c531659141344cd1fd0a4f28419497f9722a3daafe3b4186f6b6457e09190a35050565b6040518061014001604052805f81526020015f6001600160a01b031681526020015f8152602001606081526020015f8152602001606081526020015f6001600160a01b031681526020015f151581526020015f151581526020015f81525090565b80356001600160a01b0381168114610ee6575f80fd5b919050565b5f60208284031215610efb575f80fd5b610f0482610ed0565b9392505050565b602080825282518282018190525f9190848201906040850190845b81811015610f4257835183529284019291840191600101610f26565b50909695505050505050565b5f60208284031215610f5e575f80fd5b5035919050565b5f81518084525f5b81811015610f8957602081850181015186830182015201610f6d565b505f602082860101526020601f19601f83011685010191505092915050565b5f610140825184526020830151610fca60208601826001600160a01b03169052565b50604083015160408501526060830151816060860152610fec82860182610f65565b9150506080830151608085015260a083015184820360a08601526110108282610f65565b91505060c083015161102d60c08601826001600160a01b03169052565b5060e083015161104160e086018215159052565b50610100838101511515908501526101209283015192909301919091525090565b5f602080830181845280855180835260408601915060408160051b87010192508387015f5b828110156110b557603f198886030184526110a3858351610fa8565b94509285019290850190600101611087565b5092979650505050505050565b634e487b7160e01b5f52604160045260245ffd5b5f82601f8301126110e5575f80fd5b813567ffffffffffffffff80821115611100576111006110c2565b604051601f8301601f19908116603f01168101908282118183101715611128576111286110c2565b81604052838152866020858801011115611140575f80fd5b836020870160208301375f602085830101528094505050505092915050565b5f805f805f60a08688031215611173575f80fd5b61117c86610ed0565b9450602086013567ffffffffffffffff80821115611198575f80fd5b6111a489838a016110d6565b95506040880135945060608801359150808211156111c0575f80fd5b506111cd888289016110d6565b9250506111dc60808701610ed0565b90509295509295909350565b5f80604083850312156111f9575f80fd5b823591506020830135801515811461120f575f80fd5b809150509250929050565b602081525f610f046020830184610fa8565b8a81526001600160a01b038a81166020830152604082018a9052610140606083018190525f9161125e8483018c610f65565b915089608085015283820360a0850152611278828a610f65565b971660c0840152505092151560e0840152901515610100830152610120909101529695505050505050565b5f80604083850312156112b4575f80fd5b6112bd83610ed0565b946020939093013593505050565b634e487b7160e01b5f52601160045260245ffd5b818103818111156112f2576112f26112cb565b92915050565b634e487b7160e01b5f52603260045260245ffd5b600181811c9082168061132057607f821691505b60208210810361133e57634e487b7160e01b5f52602260045260245ffd5b50919050565b5f60018201611355576113556112cb565b5060010190565b601f8211156113a5575f81815260208120601f850160051c810160208610156113825750805b601f850160051c820191505b818110156113a15782815560010161138e565b5050505b505050565b815167ffffffffffffffff8111156113c4576113c46110c2565b6113d8816113d2845461130c565b8461135c565b602080601f83116001811461140b575f84156113f45750858301515b5f19600386901b1c1916600185901b1785556113a1565b5f85815260208120601f198616915b828110156114395788860151825594840194600190910190840161141a565b508582101561145657878501515f19600388901b60f8161c191681555b5050505050600190811b01905550565b606081525f6114786060830186610f65565b6020830194909452506040015291905056fea2646970667358221220385434c22c86dc308e8e6c03e8f50b0c377367cdb109eb453e14509f2492331d64736f6c63430008140033","linkReferences":{}},"methodIdentifiers":{"agentDetectionCount(address)":"2047704d","contractIncidents(address,uint256)":"adbda94e","getAgentStats(address)":"b5695b38","getContractIncidents(address)":"2e0b5973","getIncident(uint256)":"9578615e","getRecentIncidents(uint256)":"31b7733f","getTotalIncidents()":"636617b9","incidents(uint256)":"a6c6a8f3","logIncident(address,string,uint256,string,address)":"7949da85","owner()":"8da5cb5b","renounceOwnership()":"715018a6","resolveIncident(uint256,bool)":"9183af53","transferOwnership(address)":"f2fde38b"},"id":33}