{"abi":[{"type":"constructor","inputs":[],"stateMutability":"nonpayable"},{"type":"function","name":"activateModel","inputs":[{"name":"_version","type":"uint256","internalType":"uint256"}],"outputs":[],"stateMutability":"nonpayable"},{"type":"function","name":"activeModelIndex","inputs":[],"outputs":[{"name":"","type":"uint256","internalType":"uint256"}],"stateMutability":"view"},{"type":"function","name":"getActiveModel","inputs":[],"outputs":[{"name":"","type":"tuple","internalType":"struct DetectionModelRegistry.ModelVersion","components":[{"name":"ipfsHash","type":"string","internalType":"string"},{"name":"version","type":"uint256","internalType":"uint256"},{"name":"accuracy","type":"uint256","internalType":"uint256"},{"name":"falsePositiveRate","type":"uint256","internalType":"uint256"},{"name":"timestamp","type":"uint256","internalType":"uint256"},{"name":"proposer","type":"address","internalType":"address"},{"name":"isActive","type":"bool","internalType":"bool"},{"name":"description","type":"string","internalType":"string"}]}],"stateMutability":"view"},{"type":"function","name":"getAllModels","inputs":[],"outputs":[{"name":"","type":"tuple[]","internalType":"struct DetectionModelRegistry.ModelVersion[]","components":[{"name":"ipfsHash","type":"string","internalType":"string"},{"name":"version","type":"uint256","internalType":"uint256"},{"name":"accuracy","type":"uint256","internalType":"uint256"},{"name":"falsePositiveRate","type":"uint256","internalType":"uint256"},{"name":"timestamp","type":"uint256","internalType":"uint256"},{"name":"proposer","type":"address","internalType":"address"},{"name":"isActive","type":"bool","internalType":"bool"},{"name":"description","type":"string","internalType":"string"}]}],"stateMutability":"view"},{"type":"function","name":"getModel","inputs":[{"name":"_version","type":"uint256","internalType":"uint256"}],"outputs":[{"name":"","type":"tuple","internalType":"struct DetectionModelRegistry.ModelVersion","components":[{"name":"ipfsHash","type":"string","internalType":"string"},{"name":"version","type":"uint256","internalType":"uint256"},{"name":"accuracy","type":"uint256","internalType":"uint256"},{"name":"falsePositiveRate","type":"uint256","internalType":"uint256"},{"name":"timestamp","type":"uint256","internalType":"uint256"},{"name":"proposer","type":"address","internalType":"address"},{"name":"isActive","type":"bool","internalType":"bool"},{"name":"description","type":"string","internalType":"string"}]}],"stateMutability":"view"},{"type":"function","name":"getTotalModels","inputs":[],"outputs":[{"name":"","type":"uint256","internalType":"uint256"}],"stateMutability":"view"},{"type":"function","name":"models","inputs":[{"name":"","type":"uint256","internalType":"uint256"}],"outputs":[{"name":"ipfsHash","type":"string","internalType":"string"},{"name":"version","type":"uint256","internalType":"uint256"},{"name":"accuracy","type":"uint256","internalType":"uint256"},{"name":"falsePositiveRate","type":"uint256","internalType":"uint256"},{"name":"timestamp","type":"uint256","internalType":"uint256"},{"name":"proposer","type":"address","internalType":"address"},{"name":"isActive","type":"bool","internalType":"bool"},{"name":"description","type":"string","internalType":"string"}],"stateMutability":"view"},{"type":"function","name":"owner","inputs":[],"outputs":[{"name":"","type":"address","internalType":"address"}],"stateMutability":"view"},{"type":"function","name":"proposeModel","inputs":[{"name":"_ipfsHash","type":"string","internalType":"string"},{"name":"_accuracy","type":"uint256","internalType":"uint256"},{"name":"_falsePositiveRate","type":"uint256","internalType":"uint256"},{"name":"_description","type":"string","internalType":"string"}],"outputs":[{"name":"","type":"uint256","internalType":"uint256"}],"stateMutability":"nonpayable"},{"type":"function","name":"renounceOwnership","inputs":[],"outputs":[],"stateMutability":"nonpayable"},{"type":"function","name":"transferOwnership","inputs":[{"name":"newOwner","type":"address","internalType":"address"}],"outputs":[],"stateMutability":"nonpayable"},{"type":"function","name":"updateModelPerformance","inputs":[{"name":"_version","type":"uint256","internalType":"uint256"},{"name":"_accuracy","type":"uint256","internalType":"uint256"},{"name":"_falsePositiveRate","type":"uint256","internalType":"uint256"}],"outputs":[],"stateMutability":"nonpayable"},{"type":"event","name":"ModelActivated","inputs":[{"name":"version","type":"uint256","indexed":true,"internalType":"uint256"},{"name":"ipfsHash","type":"string","indexed":false,"internalType":"string"},{"name":"timestamp","type":"uint256","indexed":false,"internalType":"uint256"}],"anonymous":false},{"type":"event","name":"ModelPerformanceUpdated","inputs":[{"name":"version","type":"uint256","indexed":true,"internalType":"uint256"},{"name":"accuracy","type":"uint256","indexed":false,"internalType":"uint256"},{"name":"falsePositiveRate","type":"uint256","indexed":false,"internalType":"uint256"},{"name":"timestamp","type":"uint256","indexed":false,"internalType":"uint256"}],"anonymous":false},{"type":"event","name":"ModelProposed","inputs":[{"name":"version","type":"uint256","indexed":true,"internalType":"uint256"},{"name":"ipfsHash","type":"string","indexed":false,"internalType":"string"},{"name":"proposer","type":"address","indexed":true,"internalType":"address"},{"name":"accuracy","type":"uint256","indexed":false,"internalType":"uint256"},{"name":"timestamp","type":"uint256","indexed":false,"internalType":"uint256"}],"anonymous":false},{"type":"event","name":"OwnershipTransferred","inputs":[{"name":"previousOwner","type":"address","indexed":true,"internalType":"address"},{"name":"newOwner","type":"address","indexed":true,"internalType":"address"}],"anonymous":false},{"type":"error","name":"OwnableInvalidOwner","inputs":[{"name":"owner","type":"address","internalType":"address"}]},{"type":"error","name":"OwnableUnauthorizedAccount","inputs":[{"name":"account","type":"address","internalType":"address"}]}],"bytecode":{"object":"0x608060405234801561000f575f80fd5b50338061003557604051631e4fbdf760e01b81525f600482015260240160405180910390fd5b61003e81610044565b50610093565b5f80546001600160a01b038381166001600160a01b0319831681178455604051919092169283917f8be0079c531659141344cd1fd0a4f28419497f9722a3daafe3b4186f6b6457e09190a35050565b611430806100a05f395ff3fe608060405234801561000f575f80fd5b50600436106100b1575f3560e01c80638e9ed0f81161006e5780638e9ed0f81461014f57806390bdd0c814610170578063a9a5cb3a14610179578063e9a065101461018e578063f2fde38b14610196578063f508dde6146101a9575f80fd5b8063150d4cf6146100b55780636a030ca9146100ca5780636d361694146100fa578063715018a61461011a57806389904427146101225780638da5cb5b14610135575b5f80fd5b6100c86100c3366004610eaf565b6101b1565b005b6100dd6100d8366004610ed8565b610303565b6040516100f1989796959493929190610f32565b60405180910390f35b61010d610108366004610ed8565b610479565b6040516100f19190611014565b6100c8610644565b6100c8610130366004610ed8565b610657565b5f546040516001600160a01b0390911681526020016100f1565b61016261015d3660046110ca565b61079f565b6040519081526020016100f1565b61016260025481565b6101816109f0565b6040516100f1919061113c565b61010d610bbd565b6100c86101a436600461119c565b610dad565b600154610162565b6101b9610dea565b60015483106101e35760405162461bcd60e51b81526004016101da906111c2565b60405180910390fd5b6127108211156102355760405162461bcd60e51b815260206004820181905260248201527f4163637572616379206d75737420626520696e20626173697320706f696e747360448201526064016101da565b6127108111156102875760405162461bcd60e51b815260206004820152601b60248201527f465052206d75737420626520696e20626173697320706f696e7473000000000060448201526064016101da565b5f6001848154811061029b5761029b6111f1565b5f918252602091829020600260079092020190810185905560038101849055604080518681529283018590524290830152915084907f74c86b40441298ccd49243332ab73599e6800b3ad4dd5e3fdfdde16cb2e78fd79060600160405180910390a250505050565b60018181548110610312575f80fd5b905f5260205f2090600702015f91509050805f01805461033190611205565b80601f016020809104026020016040519081016040528092919081815260200182805461035d90611205565b80156103a85780601f1061037f576101008083540402835291602001916103a8565b820191905f5260205f20905b81548152906001019060200180831161038b57829003601f168201915b505050506001830154600284015460038501546004860154600587015460068801805497989597949650929491936001600160a01b03821693600160a01b90920460ff169291906103f890611205565b80601f016020809104026020016040519081016040528092919081815260200182805461042490611205565b801561046f5780601f106104465761010080835404028352916020019161046f565b820191905f5260205f20905b81548152906001019060200180831161045257829003601f168201915b5050505050905088565b610481610e65565b60015482106104a25760405162461bcd60e51b81526004016101da906111c2565b600182815481106104b5576104b56111f1565b905f5260205f209060070201604051806101000160405290815f820180546104dc90611205565b80601f016020809104026020016040519081016040528092919081815260200182805461050890611205565b80156105535780601f1061052a57610100808354040283529160200191610553565b820191905f5260205f20905b81548152906001019060200180831161053657829003601f168201915b50505091835250506001820154602082015260028201546040820152600382015460608201526004820154608082015260058201546001600160a01b03811660a0830152600160a01b900460ff16151560c082015260068201805460e0909201916105bd90611205565b80601f01602080910402602001604051908101604052809291908181526020018280546105e990611205565b80156106345780601f1061060b57610100808354040283529160200191610634565b820191905f5260205f20905b81548152906001019060200180831161061757829003601f168201915b5050505050815250509050919050565b61064c610dea565b6106555f610e16565b565b61065f610dea565b60015481106106805760405162461bcd60e51b81526004016101da906111c2565b600154158015906106bf57506001600254815481106106a1576106a16111f1565b905f5260205f20906007020160050160149054906101000a900460ff165b15610701575f6001600254815481106106da576106da6111f1565b905f5260205f20906007020160050160146101000a81548160ff0219169083151502179055505b6001808281548110610715576107156111f1565b905f5260205f20906007020160050160146101000a81548160ff02191690831515021790555080600281905550807f55d7c8356a0656aaeda53a8db0b9c01f0ef4b618c6396835534310c59f099d2360018381548110610777576107776111f1565b905f5260205f2090600702015f014260405161079492919061123d565b60405180910390a250565b5f6107a8610dea565b5f8551116107ec5760405162461bcd60e51b8152602060048201526011602482015270092dcecc2d8d2c84092a08ca640d0c2e6d607b1b60448201526064016101da565b6127108411156108515760405162461bcd60e51b815260206004820152602a60248201527f4163637572616379206d75737420626520696e20626173697320706f696e74736044820152692028302d31303030302960b01b60648201526084016101da565b6127108311156108a35760405162461bcd60e51b815260206004820152601b60248201527f465052206d75737420626520696e20626173697320706f696e7473000000000060448201526064016101da565b60018054604080516101008101825288815260208101839052908101879052606081018690524260808201523360a08201525f60c0820181905260e0820186905282840184559290925281519091908190600784027fb10e2d527612073b26eecdfd717e6a320cf44b4afac2b0732d9fcbe2b7fa0cf601908190610927908261131a565b506020820151600182015560408201516002820155606082015160038201556080820151600482015560a082015160058201805460c08501511515600160a01b026001600160a81b03199091166001600160a01b039093169290921791909117905560e0820151600682019061099d908261131a565b505050336001600160a01b0316827f048a30071a3d39548446f6b5eb1143eb7fa1c209a139180b8a1ba0df68e54deb8989426040516109de939291906113d6565b60405180910390a35095945050505050565b60606001805480602002602001604051908101604052809291908181526020015f905b82821015610bb4578382905f5260205f209060070201604051806101000160405290815f82018054610a4490611205565b80601f0160208091040260200160405190810160405280929190818152602001828054610a7090611205565b8015610abb5780601f10610a9257610100808354040283529160200191610abb565b820191905f5260205f20905b815481529060010190602001808311610a9e57829003601f168201915b50505091835250506001820154602082015260028201546040820152600382015460608201526004820154608082015260058201546001600160a01b03811660a0830152600160a01b900460ff16151560c082015260068201805460e090920191610b2590611205565b80601f0160208091040260200160405190810160405280929190818152602001828054610b5190611205565b8015610b9c5780601f10610b7357610100808354040283529160200191610b9c565b820191905f5260205f20905b815481529060010190602001808311610b7f57829003601f168201915b50505050508152505081526020019060010190610a13565b50505050905090565b610bc5610e65565b600154610c0b5760405162461bcd60e51b8152602060048201526014602482015273139bc81b5bd9195b1cc81c9959da5cdd195c995960621b60448201526064016101da565b600160025481548110610c2057610c206111f1565b905f5260205f209060070201604051806101000160405290815f82018054610c4790611205565b80601f0160208091040260200160405190810160405280929190818152602001828054610c7390611205565b8015610cbe5780601f10610c9557610100808354040283529160200191610cbe565b820191905f5260205f20905b815481529060010190602001808311610ca157829003601f168201915b50505091835250506001820154602082015260028201546040820152600382015460608201526004820154608082015260058201546001600160a01b03811660a0830152600160a01b900460ff16151560c082015260068201805460e090920191610d2890611205565b80601f0160208091040260200160405190810160405280929190818152602001828054610d5490611205565b8015610d9f5780601f10610d7657610100808354040283529160200191610d9f565b820191905f5260205f20905b815481529060010190602001808311610d8257829003601f168201915b505050505081525050905090565b610db5610dea565b6001600160a01b038116610dde57604051631e4fbdf760e01b81525f60048201526024016101da565b610de781610e16565b50565b5f546001600160a01b031633146106555760405163118cdaa760e01b81523360048201526024016101da565b5f80546001600160a01b038381166001600160a01b0319831681178455604051919092169283917f8be0079c531659141344cd1fd0a4f28419497f9722a3daafe3b4186f6b6457e09190a35050565b604051806101000160405280606081526020015f81526020015f81526020015f81526020015f81526020015f6001600160a01b031681526020015f15158152602001606081525090565b5f805f60608486031215610ec1575f80fd5b505081359360208301359350604090920135919050565b5f60208284031215610ee8575f80fd5b5035919050565b5f81518084525f5b81811015610f1357602081850181015186830182015201610ef7565b505f602082860101526020601f19601f83011685010191505092915050565b5f610100808352610f458184018c610eef565b905089602084015288604084015287606084015286608084015260018060a01b03861660a084015284151560c084015282810360e0840152610f878185610eef565b9b9a5050505050505050505050565b5f6101008251818552610fab82860182610eef565b9150506020830151602085015260408301516040850152606083015160608501526080830151608085015260018060a01b0360a08401511660a085015260c0830151151560c085015260e083015184820360e086015261100b8282610eef565b95945050505050565b602081525f6110266020830184610f96565b9392505050565b634e487b7160e01b5f52604160045260245ffd5b5f82601f830112611050575f80fd5b813567ffffffffffffffff8082111561106b5761106b61102d565b604051601f8301601f19908116603f011681019082821181831017156110935761109361102d565b816040528381528660208588010111156110ab575f80fd5b836020870160208301375f602085830101528094505050505092915050565b5f805f80608085870312156110dd575f80fd5b843567ffffffffffffffff808211156110f4575f80fd5b61110088838901611041565b955060208701359450604087013593506060870135915080821115611123575f80fd5b5061113087828801611041565b91505092959194509250565b5f602080830181845280855180835260408601915060408160051b87010192508387015f5b8281101561118f57603f1988860301845261117d858351610f96565b94509285019290850190600101611161565b5092979650505050505050565b5f602082840312156111ac575f80fd5b81356001600160a01b0381168114611026575f80fd5b60208082526015908201527424b73b30b634b21036b7b232b6103b32b939b4b7b760591b604082015260600190565b634e487b7160e01b5f52603260045260245ffd5b600181811c9082168061121957607f821691505b60208210810361123757634e487b7160e01b5f52602260045260245ffd5b50919050565b604081525f80845461124e81611205565b806040860152606060018084165f811461126f5760018114611289576112b7565b60ff1985168884015283151560051b8801830195506112b7565b895f526020805f205f5b868110156112ae5781548b8201870152908401908201611293565b8a018501975050505b50505050506020929092019290925292915050565b601f821115611315575f81815260208120601f850160051c810160208610156112f25750805b601f850160051c820191505b81811015611311578281556001016112fe565b5050505b505050565b815167ffffffffffffffff8111156113345761133461102d565b611348816113428454611205565b846112cc565b602080601f83116001811461137b575f84156113645750858301515b5f19600386901b1c1916600185901b178555611311565b5f85815260208120601f198616915b828110156113a95788860151825594840194600190910190840161138a565b50858210156113c657878501515f19600388901b60f8161c191681555b5050505050600190811b01905550565b606081525f6113e86060830186610eef565b6020830194909452506040015291905056fea26469706673582212205a631c47c8a218a030d980ceecad85c370a4ab7be484ad3f92f858694a4a9c7264736f6c63430008140033","linkReferences":{}},"methodIdentifiers":{"activateModel(uint256)":"89904427","activeModelIndex()":"90bdd0c8","getActiveModel()":"e9a06510","getAllModels()":"a9a5cb3a","getModel(uint256)":"6d361694","getTotalModels()":"f508dde6","models(uint256)":"6a030ca9","owner()":"8da5cb5b","proposeModel(string,uint256,uint256,string)":"8e9ed0f8","renounceOwnership()":"715018a6","transferOwnership(address)":"f2fde38b","updateModelPerformance(uint256,uint256,uint256)":"150d4cf6"},"id":31}